{
  "contractName": "Ballot",
  "abi": [
    {
      "inputs": [],
      "stateMutability": "nonpayable",
      "type": "constructor"
    },
    {
      "anonymous": false,
      "inputs": [
        {
          "indexed": false,
          "internalType": "string",
          "name": "messageRegistered",
          "type": "string"
        }
      ],
      "name": "registeredEvent",
      "type": "event"
    },
    {
      "anonymous": false,
      "inputs": [
        {
          "indexed": false,
          "internalType": "string",
          "name": "messageVoted",
          "type": "string"
        },
        {
          "indexed": false,
          "internalType": "address",
          "name": "_voter",
          "type": "address"
        }
      ],
      "name": "votedEvent",
      "type": "event"
    },
    {
      "inputs": [],
      "name": "chairperson",
      "outputs": [
        {
          "internalType": "address",
          "name": "",
          "type": "address"
        }
      ],
      "stateMutability": "view",
      "type": "function",
      "constant": true
    },
    {
      "inputs": [
        {
          "internalType": "uint256",
          "name": "",
          "type": "uint256"
        }
      ],
      "name": "proposals",
      "outputs": [
        {
          "internalType": "uint256",
          "name": "",
          "type": "uint256"
        }
      ],
      "stateMutability": "view",
      "type": "function",
      "constant": true
    },
    {
      "inputs": [
        {
          "internalType": "address",
          "name": "",
          "type": "address"
        }
      ],
      "name": "voters",
      "outputs": [
        {
          "internalType": "uint256",
          "name": "weight",
          "type": "uint256"
        },
        {
          "internalType": "bool",
          "name": "voted",
          "type": "bool"
        },
        {
          "internalType": "uint8",
          "name": "vote",
          "type": "uint8"
        }
      ],
      "stateMutability": "view",
      "type": "function",
      "constant": true
    },
    {
      "inputs": [
        {
          "internalType": "address",
          "name": "toVoter",
          "type": "address"
        }
      ],
      "name": "register",
      "outputs": [],
      "stateMutability": "nonpayable",
      "type": "function"
    },
    {
      "inputs": [
        {
          "internalType": "uint8",
          "name": "toProposal",
          "type": "uint8"
        }
      ],
      "name": "vote",
      "outputs": [],
      "stateMutability": "nonpayable",
      "type": "function"
    },
    {
      "inputs": [],
      "name": "winningProposal",
      "outputs": [
        {
          "internalType": "uint8",
          "name": "_winningProposal",
          "type": "uint8"
        }
      ],
      "stateMutability": "view",
      "type": "function",
      "constant": true
    },
    {
      "inputs": [],
      "name": "getCount",
      "outputs": [
        {
          "internalType": "uint256[4]",
          "name": "",
          "type": "uint256[4]"
        }
      ],
      "stateMutability": "view",
      "type": "function",
      "constant": true
    }
  ],
  "bytecode": "0x608060405234801561001057600080fd5b50336000806101000a81548173ffffffffffffffffffffffffffffffffffffffff021916908373ffffffffffffffffffffffffffffffffffffffff1602179055506002600160008060009054906101000a900473ffffffffffffffffffffffffffffffffffffffff1673ffffffffffffffffffffffffffffffffffffffff1673ffffffffffffffffffffffffffffffffffffffff16815260200190815260200160002060000181905550610e15806100c96000396000f3fe608060405234801561001057600080fd5b506004361061007d5760003560e01c8063609ff1bd1161005b578063609ff1bd146100ec578063a3ec138d1461010a578063a87d942c1461013c578063b3f98adc1461015a5761007d565b8063013cf08b146100825780632e4176cf146100b25780634420e486146100d0575b600080fd5b61009c600480360381019061009791906107af565b610176565b6040516100a99190610beb565b60405180910390f35b6100ba610191565b6040516100c79190610ac7565b60405180910390f35b6100ea60048036038101906100e59190610786565b6101b5565b005b6100f4610432565b6040516101019190610c3d565b60405180910390f35b610124600480360381019061011f9190610786565b6104eb565b60405161013393929190610c06565b60405180910390f35b61014461052f565b6040516101519190610ae2565b60405180910390f35b610174600480360381019061016f91906107d8565b61057a565b005b6002816004811061018657600080fd5b016000915090505481565b60008054906101000a900473ffffffffffffffffffffffffffffffffffffffff1681565b60008054906101000a900473ffffffffffffffffffffffffffffffffffffffff1673ffffffffffffffffffffffffffffffffffffffff163373ffffffffffffffffffffffffffffffffffffffff1614610243576040517f08c379a000000000000000000000000000000000000000000000000000000000815260040161023a90610b6b565b60405180910390fd5b600160008273ffffffffffffffffffffffffffffffffffffffff1673ffffffffffffffffffffffffffffffffffffffff16815260200190815260200160002060010160009054906101000a900460ff16156102d3576040517f08c379a00000000000000000000000000000000000000000000000000000000081526004016102ca90610bcb565b60405180910390fd5b6000600160008373ffffffffffffffffffffffffffffffffffffffff1673ffffffffffffffffffffffffffffffffffffffff1681526020019081526020016000206000015414610358576040517f08c379a000000000000000000000000000000000000000000000000000000000815260040161034f90610b8b565b60405180910390fd5b60018060008373ffffffffffffffffffffffffffffffffffffffff1673ffffffffffffffffffffffffffffffffffffffff168152602001908152602001600020600001819055506000600160008373ffffffffffffffffffffffffffffffffffffffff1673ffffffffffffffffffffffffffffffffffffffff16815260200190815260200160002060010160006101000a81548160ff0219169083151502179055507fb5acf7fd9f0795c1dd8fc88d9018b3a6a4b1c4115322496ef9769d9e69fbf93160405161042790610b4b565b60405180910390a150565b6000806000905060005b60048160ff1610156104e6578160028260ff1660048110610486577f4e487b7100000000000000000000000000000000000000000000000000000000600052603260045260246000fd5b015411156104d35760028160ff16600481106104cb577f4e487b7100000000000000000000000000000000000000000000000000000000600052603260045260246000fd5b015491508092505b80806104de90610d41565b91505061043c565b505090565b60016020528060005260406000206000915090508060000154908060010160009054906101000a900460ff16908060010160019054906101000a900460ff16905083565b610537610725565b6002600480602002604051908101604052809291908260048015610570576020028201915b81548152602001906001019080831161055c575b5050505050905090565b6000600160003373ffffffffffffffffffffffffffffffffffffffff1673ffffffffffffffffffffffffffffffffffffffff1681526020019081526020016000209050600081600001541415610605576040517f08c379a00000000000000000000000000000000000000000000000000000000081526004016105fc90610b2b565b60405180910390fd5b8060010160009054906101000a900460ff1615610657576040517f08c379a000000000000000000000000000000000000000000000000000000000815260040161064e90610bab565b60405180910390fd5b60018160010160006101000a81548160ff021916908315150217905550818160010160016101000a81548160ff021916908360ff160217905550806000015460028360ff16600481106106d3577f4e487b7100000000000000000000000000000000000000000000000000000000600052603260045260246000fd5b0160008282546106e39190610c96565b925050819055507f13b6f573f8c7602890a310fb3006a8aee19a26d9b6268a59cbd3490db4fc415b336040516107199190610afd565b60405180910390a15050565b6040518060800160405280600490602082028036833780820191505090505090565b60008135905061075681610d9a565b92915050565b60008135905061076b81610db1565b92915050565b60008135905061078081610dc8565b92915050565b60006020828403121561079857600080fd5b60006107a684828501610747565b91505092915050565b6000602082840312156107c157600080fd5b60006107cf8482850161075c565b91505092915050565b6000602082840312156107ea57600080fd5b60006107f884828501610771565b91505092915050565b600061080d8383610a9a565b60208301905092915050565b61082281610cec565b82525050565b61083181610c62565b61083b8184610c7a565b925061084682610c58565b8060005b8381101561087757815161085e8782610801565b965061086983610c6d565b92505060018101905061084a565b505050505050565b61088881610cfe565b82525050565b600061089b603483610c85565b91507f566f7465207375636365737366756c6c7920636173742062792074686520616360008301527f636f756e74207769746820616464726573733a200000000000000000000000006020830152604082019050919050565b6000610901601e83610c85565b91507f54686973206163636f756e74206973206e6f74207265676973746572656400006000830152602082019050919050565b6000610941601283610c85565b91507f4163636f756e74207265676973746572656400000000000000000000000000006000830152602082019050919050565b6000610981602883610c85565b91507f4f6e6c79206368616972706572736f6e2063616e20676976652072696768742060008301527f746f20766f74652e0000000000000000000000000000000000000000000000006020830152604082019050919050565b60006109e7602083610c85565b91507f54686520766f74657220697320616c726561647920726567697374657265642e6000830152602082019050919050565b6000610a27601e83610c85565b91507f54686973206163636f756e742068617320616c726561647920766f74656400006000830152602082019050919050565b6000610a67601883610c85565b91507f54686520766f74657220616c726561647920766f7465642e00000000000000006000830152602082019050919050565b610aa381610d2a565b82525050565b610ab281610d2a565b82525050565b610ac181610d34565b82525050565b6000602082019050610adc6000830184610819565b92915050565b6000608082019050610af76000830184610828565b92915050565b60006040820190508181036000830152610b168161088e565b9050610b256020830184610819565b92915050565b60006020820190508181036000830152610b44816108f4565b9050919050565b60006020820190508181036000830152610b6481610934565b9050919050565b60006020820190508181036000830152610b8481610974565b9050919050565b60006020820190508181036000830152610ba4816109da565b9050919050565b60006020820190508181036000830152610bc481610a1a565b9050919050565b60006020820190508181036000830152610be481610a5a565b9050919050565b6000602082019050610c006000830184610aa9565b92915050565b6000606082019050610c1b6000830186610aa9565b610c28602083018561087f565b610c356040830184610ab8565b949350505050565b6000602082019050610c526000830184610ab8565b92915050565b6000819050919050565b600060049050919050565b6000602082019050919050565b600081905092915050565b600082825260208201905092915050565b6000610ca182610d2a565b9150610cac83610d2a565b9250827fffffffffffffffffffffffffffffffffffffffffffffffffffffffffffffffff03821115610ce157610ce0610d6b565b5b828201905092915050565b6000610cf782610d0a565b9050919050565b60008115159050919050565b600073ffffffffffffffffffffffffffffffffffffffff82169050919050565b6000819050919050565b600060ff82169050919050565b6000610d4c82610d34565b915060ff821415610d6057610d5f610d6b565b5b600182019050919050565b7f4e487b7100000000000000000000000000000000000000000000000000000000600052601160045260246000fd5b610da381610cec565b8114610dae57600080fd5b50565b610dba81610d2a565b8114610dc557600080fd5b50565b610dd181610d34565b8114610ddc57600080fd5b5056fea2646970667358221220189e1591adb4eabc33d99c8920910172fb0916866011f3a190cec49f8f7473b064736f6c63430008000033",
  "immutableReferences": {},
  "source": "// SPDX-License-Identifier: GPL-3.0\npragma solidity >=0.7.0 <0.9.0;\n\ncontract Ballot {\n\n    struct Voter {\n        uint weight;\n        bool voted;\n        uint8 vote;\n        // address delegate;\n    }\n\n    //modifer\n    modifier onlyOwner () {\n      require(msg.sender == chairperson,\n      \"Only chairperson can give right to vote.\"\n      );\n      _;\n    }\n\n    /* struct Proposal {\n        uint voteCount; // could add other data about proposal\n    } */\n    address public chairperson;\n    mapping(address => Voter) public voters;\n    uint[4] public proposals;\n\n    event votedEvent(string messageVoted, address _voter);\n    event registeredEvent(string messageRegistered);\n\n    // Create a new ballot with 4 different proposals.\n    constructor() {\n        chairperson = msg.sender;\n        voters[chairperson].weight = 2;\n    }\n\n    /// Give $(toVoter) the right to vote on this ballot.\n    /// May only be called by $(chairperson).\n    function register(address toVoter) public onlyOwner{\n\n        require(\n            !voters[toVoter].voted,\n            \"The voter already voted.\"\n        );\n        require(\n            voters[toVoter].weight == 0,\n            \"The voter is already registered.\"\n        );\n\n        voters[toVoter].weight = 1;\n        voters[toVoter].voted = false;\n        emit registeredEvent(\"Account registered\");\n    }\n\n    /// Give a single vote to proposal $(toProposal).\n    function vote(uint8 toProposal) public {\n        Voter storage sender = voters[msg.sender];\n        \n        require(sender.weight != 0, \"This account is not registered\");\n        require(!sender.voted, \"This account has already voted\");\n            \n        sender.voted = true;\n        sender.vote = toProposal;\n        proposals[toProposal] += sender.weight;\n        emit votedEvent(\"Vote successfully cast by the account with address: \", msg.sender);\n    }\n\n    function winningProposal() public view returns (uint8 _winningProposal) {\n        uint256 winningVoteCount = 0;\n        for (uint8 prop = 0; prop < proposals.length; prop++)\n            if (proposals[prop] > winningVoteCount) {\n                winningVoteCount = proposals[prop];\n                _winningProposal = prop;\n            }\n    }\n\n    function getCount() public view returns (uint[4] memory) {\n        return proposals;\n    }\n}\n",
  "sourcePath": "C:\\Users\\Elvis\\Documents\\Coursera\\Blockhain - University at Buffalo\\Course 3 - Decentralized Apps\\React Box 2022\\truffle\\contracts\\Ballotv2.sol",
  "compiler": {
    "name": "solc",
    "version": "0.8.0+commit.c7dfd78e.Emscripten.clang"
  },
  "schemaVersion": "3.4.7",
  "updatedAt": "2022-07-30T11:23:59.300Z",
  "networkType": "ethereum",
  "devdoc": {
    "kind": "dev",
    "methods": {},
    "version": 1
  },
  "userdoc": {
    "kind": "user",
    "methods": {
      "register(address)": {
        "notice": "Give $(toVoter) the right to vote on this ballot. May only be called by $(chairperson)."
      },
      "vote(uint8)": {
        "notice": "Give a single vote to proposal $(toProposal)."
      }
    },
    "version": 1
  }
}